S01800004544322D4C61626F7261746F72696F312E7372656375
S11300000C9434000C9451000C9451000C94510045
S11300100C94D3000C9451000C9451000C94510096
S11300200C9451000C9451000C9451000C94510008
S11300300C9451000C943B010C9451000C9451000D
S11300400C9424010C9451000C9451000C94510014
S11300500C9451000C9451000C9451000C945100D8
S11300600C9451000C94510011241FBECFEFD8E022
S1130070DEBFCDBF11E0A0E0B1E0E8E9F2E002C0EC
S113008005900D92A231B107D9F721E0A2E1B1E0C8
S113009001C01D92A831B207E1F70E94B5000C948B
S11300A04A010C9400008F709927FC01E050FF4F27
S11300B080818BB90895F8941CBC8FEF84B98AB9F8
S11300C087B1887F87B988B1876088B9ECE6F0E0AA
S11300D0808187608083E8E6F0E0808182608083AD
S11300E014BC82E085BD83E886BD81E080936E0008
S11300F01092800084E0809381001092B00087E029
S11301008093B1007894089515B8809110018130DE
S113011091F48091170120E1829FC00111249091F4
S11301201601892B80931501809115018BB985B136
S1130130826085B908958091110190E00E94530076
S113014085B1816085B908958091110181508093B2
S113015011011092140180911101811105C081E0F7
S11301608093130110926F0008950E945B008091A8
S11301701401882319F00E94A40012C08091130175
S1130180882371F0809112018093110180911201F2
S1130190813021F080911201823011F41092130108
S11301A00E948400E4CF1F920F920FB60F92112485
S11301B08F939F93809113018823A1F1319916C0E5
S11301C080911701811104C081E0809317010EC052
S11301D080911701880F80931701809117018F3048
S11301E029F481E08093120110921301329925C001
S11301F080911601811104C081E0809316011DC015
S11302008091160190E0880F991F8F7080931601DA
S1130210809116018F3089F482E08093120110924C
S113022013010BC0309909C08EEE95E890938500B8
S11302308093840081E080936F009F918F910F9051
S11302400FBE0F901F9018951F920F920FB60F922A
S113025011248F9380911001813021F482E08093E6
S1130260100103C081E0809310018F910F900FBEA5
S11302700F901F9018951F920F920FB60F92112492
S11302808F9381E0809314018F910F900FBE0F9094
S10B02901F901895F894FFCFAC
S11302984079243019120278001008034621060E0A
S10502A801054A
S9030113E8
