S01800004544322D4C61626F7261746F72696F312E7372656375
S11300000C9434000C9451000C9451000C94510045
S11300100C94AE000C9451000C9451000C945100BB
S11300200C9451000C9451000C9451000C94510008
S11300300C9451000C94DE000C9451000C9451006B
S11300400C94C7000C9451000C9451000C94510072
S11300500C9451000C9451000C9451000C945100D8
S11300600C9451000C94510011241FBECFEFD8E022
S1130070DEBFCDBF11E0A0E0B1E0EEEDF1E002C0E3
S113008005900D92A231B107D9F721E0A2E1B1E0C8
S113009001C01D92A531B207E1F70E9484000C94BF
S11300A0ED000C9400008F709927FC01E050FF4F85
S11300B080818BB90895F8941CBC8FEF84B98AB9F8
S11300C087B1887F87B988B1876088B9ECE6F0E0AA
S11300D0808187608083E8E6F0E0808182608083AD
S11300E014BC82E085BD83E886BD81E080936E0008
S11300F01092800084E0809381001092B00087E029
S11301008093B100789408950E945B00809113015C
S1130110882379F08091110181508093110110920C
S1130120130180911101811104C0109212011092E7
S11301306F0015B880911001813039F48091140159
S11301408BB985B1826085B9E1CF8091110190E0CE
S11301500E94530085B1816085B9D8CF1F920F9258
S11301600FB60F9211248F939F93309909C08EEE8E
S113017095E8909385008093840081E080936F00DC
S11301809F918F910F900FBE0F901F9018951F9203
S11301900F920FB60F9211248F938091100181302A
S11301A021F482E08093100103C081E08093100168
S11301B08F910F900FBE0F901F9018951F920F9262
S11301C00FB60F9211248F9381E0809313018F91C6
S11101D00F900FBE0F901F901895F894FFCF5C
S11301DE4079243019120278001008034621060EC5
S10501EE010505
S9030112E9
