S01800004544322D4C61626F7261746F72696F312E7372656375
S11300000C9434000C9451000C9451000C94510045
S11300100C94A9000C9451000C9451000C945100C0
S11300200C9451000C94D4000C9451000C94510085
S11300300C9451000C9451000C9451000C945100F8
S11300400C94BD000C9451000C9451000C9451007C
S11300500C9451000C9451000C9451000C945100D8
S11300600C9451000C94510011241FBECFEFD8E022
S1130070DEBFCDBF11E0A0E0B1E0ECEDF1E002C0E5
S113008005900D92A231B107D9F721E0A2E1B1E0C8
S113009001C01D92A631B207E1F70E947F000C94C3
S11300A0EC000C9400008F709927FC01E050FF4F86
S11300B080818BB90895F8941CBC8FEF84B98AB9F8
S11300C087B1887F87B988B1876088B9ECE6F0E0AA
S11300D0808187608083E8E6F0E0808182608083AD
S11300E014BC82E085BD83E886BD81E080936E0008
S11300F01092B00086E08093B100789408950E9435
S11301005B0080911301882379F080911101815063
S1130110809311011092130180911101811104C087
S1130120109212011092700015B880911001813064
S113013039F4809115018BB985B1826085B9E1CF1D
S11301408091110190E00E94530085B1816085B9CE
S1130150D8CF1F920F920FB60F9211248F9330991C
S113016006C08DE38093B20081E0809370008F918C
S11301700F900FBE0F901F9018951F920F920FB6FD
S11301800F9211248F9380911001813021F482E029
S11301908093100103C081E0809310018F910F9030
S11301A00FBE0F901F9018951F920F920FB60F92CB
S11301B011248F9380911401853019F481E0809388
S11301C01301809114018F5F809314018F910F901C
S10F01D00FBE0F901F901895F894FFCFFD
S11301DC4079243019120278001008034621060EC7
S10501EC010507
S9030112E9
