:100000000C9434000C9451000C9451000C94510049
:100010000C94F5000C9451000C9451000C94510078
:100020000C9451000C9451000C9451000C9451000C
:100030000C9451000C945E010C9451000C945100EE
:100040000C9447010C9451000C9451000C945100F5
:100050000C9451000C9451000C9451000C945100DC
:100060000C9451000C94510011241FBECFEFD8E026
:10007000DEBFCDBF11E0A0E0B1E0EEEDF2E002C0E6
:1000800005900D92A231B107D9F721E0A2E1B1E0CC
:1000900001C01D92A931B207E1F70E94C1000C9482
:1000A0006D010C9400008F709927FC01E050FF4F08
:1000B00080818BB90895F8941CBC8FEF84B98AB9FC
:1000C00087B1887F87B988B1876088B9ECE6F0E0AE
:1000D000808187608083E8E6F0E0808182608083B1
:1000E00014BC82E085BD83E886BD81E080936E000C
:1000F0001092800084E0809381001092B00087E02D
:100100008093B1007894089515B8809110018130E2
:1001100091F48091180120E1829FC00111249091F7
:100120001701892B80931601809116018BB985B137
:10013000826085B908958091110190E00E9453007A
:1001400085B1816085B908958091110181508093B6
:1001500011011092150180911101811105C081E0FA
:100160008093130110926F00089510921401109261
:100170001201109218011092170186E0809311016C
:1001800008950E945B0080911401882319F00E9459
:10019000B50028C080911501882319F00E94A400A1
:1001A00021C0809113018823E9F0809112018130F0
:1001B00021F0809112018230A9F4109213018091F4
:1001C0001201809311011092180110921701809171
:1001D0001201813021F48FE08093180103C08FE079
:1001E000809317010E948400CECF1F920F920FB60A
:1001F0000F9211248F939F9380911301882399F17B
:10020000319917C080911801811104C081E0809359
:1002100018010FC08091180190E0880F991F8F700E
:100220008093180180911801883019F481E080933F
:100230001201329925C080911701811104C081E01B
:10024000809317011DC08091170190E0880F991FBE
:100250008F708093170180911701883089F482E0B4
:10026000809312010DC030990BC08EEE95E89093EB
:1002700085008093840081E080936F008093140157
:100280009F918F910F900FBE0F901F9018951F9206
:100290000F920FB60F9211248F938091100181302D
:1002A00021F482E08093100103C081E0809310016B
:1002B0008F910F900FBE0F901F9018951F920F9265
:1002C0000FB60F9211248F9381E0809315018F91C7
:0E02D0000F900FBE0F901F901895F894FFCF5F
:1002DE004079243019120278001008034621060EC8
:0202EE00010508
:040000050080011363
:00000001FF
