S01800004544322D4C61626F7261746F72696F312E7372656375
S11300000C9434000C9451000C9451000C94510045
S11300100C94D3000C9451000C9451000C94510096
S11300200C9451000C9451000C9451000C94510008
S11300300C9451000C943A010C9451000C9451000E
S11300400C9423010C9451000C9451000C94510015
S11300500C9451000C9451000C9451000C945100D8
S11300600C9451000C94510011241FBECFEFD8E022
S1130070DEBFCDBF11E0A0E0B1E0E6E9F2E002C0EE
S113008005900D92A231B107D9F721E0A2E1B1E0C8
S113009001C01D92A831B207E1F70E94B5000C948B
S11300A049010C9400008F709927FC01E050FF4F28
S11300B080818BB90895F8941CBC8FEF84B98AB9F8
S11300C087B1887F87B988B1876088B9ECE6F0E0AA
S11300D0808187608083E8E6F0E0808182608083AD
S11300E014BC82E085BD83E886BD81E080936E0008
S11300F01092800084E0809381001092B00087E029
S11301008093B1007894089515B8809110018130DE
S113011091F48091170120E1829FC00111249091F4
S11301201601892B80931501809115018BB985B136
S1130130826085B908958091110190E00E94530076
S113014085B1816085B908958091110181508093B2
S113015011011092140180911101811105C081E0F7
S11301608093130110926F0008950E945B008091A8
S11301701401882319F00E94A40012C08091130175
S1130180882371F0809112018093110180911201F2
S1130190813021F080911201823011F41092130108
S11301A00E948400E4CF1F920F920FB60F92112485
S11301B08F939F9380911301882399F1319917C0EC
S11301C080911701811104C081E0809317010FC051
S11301D08091170190E0880F991F8F708093170109
S11301E080911701883019F481E0809312013299CB
S11301F023C080911601811104C081E0809316010F
S11302001BC08091160190E0880F991F8F70809316
S1130210160180911601883079F482E080931201EE
S11302200BC0309909C08EEE95E8909385008093B9
S1130230840081E080936F009F918F910F900FBE97
S11302400F901F9018951F920F920FB60F921124C2
S11302508F9380911001813021F482E0809310010A
S113026003C081E0809310018F910F900FBE0F9017
S11302701F9018951F920F920FB60F9211248F930F
S113028081E0809314018F910F900FBE0F901F9007
S10902901895F894FFCF5D
S11302964079243019120278001008034621060E0C
S10502A601054C
S9030113E8
